{
    "sar11_d0g0v0_Byzantium" : {
        "_info" : {
            "comment" : "",
            "filledwith" : "cpp-1.3.0+commit.7f06dbfd.Linux.g++",
            "lllcversion" : "Version: 0.4.21-develop.2018.2.27+commit.2abc5be7.Linux.g++",
            "source" : "src/BlockchainTestsFiller/GeneralStateTests/stShift/sar11_d0g0v0Filler.json",
            "sourceHash" : "e20f502e1d613c7451050d8d04e58973463b7fc15e366ca63b1deb49c1bff299"
        },
        "blocks" : [
            {
                "blockHeader" : {
                    "bloom" : "0x00000000000000000000000000000000000000000000000000000000000000000000000000000000000000000000000000000000000000000000000000000000000000000000000000000000000000000000000000000000000000000000000000000000000000000000000000000000000000000000000000000000000000000000000000000000000000000000000000000000000000000000000000000000000000000000000000000000000000000000000000000000000000000000000000000000000000000000000000000000000000000000000000000000000000000000000000000000000000000000000000000000000000000000000000000000",
                    "coinbase" : "0x2adc25665018aa1fe0e6bc666dac8fc2697ff9ba",
                    "difficulty" : "0x020000",
                    "extraData" : "",
                    "gasLimit" : "0x0f4240",
                    "gasUsed" : "0x061a80",
                    "hash" : "0x12df01c916a12956eded7246535f3aa10714e05dbc06a27cd6915595265a7cfd",
                    "mixHash" : "0x5dd48b5485ed30fe46a1687c7fc10769db8629f61baf6da6e1581d8e44419d92",
                    "nonce" : "0x54f881da0f4a8086",
                    "number" : "0x01",
                    "parentHash" : "0xbf97d3ea7724f289696ed09488c20e69d2911ab24f8688e860db8a11a7238a57",
                    "receiptTrie" : "0xba9991e573821b0c234e361e68d2fe4b0fc940f8380d61fc18ee6ceb963b7094",
                    "stateRoot" : "0xa0ed2da8aaa4b4050f423a36566c99d5e16e53bf00653261119001f68fd2dd8e",
                    "timestamp" : "0x03e8",
                    "transactionsTrie" : "0x93ca2a18d52e7c1846f7b104e2fc1e5fdc71ebe38187248f9437d39e74f43aab",
                    "uncleHash" : "0x1dcc4de8dec75d7aab85b567b6ccd41ad312451b948a7413f0a142fd40d49347"
                },
                "rlp" : "0xf90263f901f8a0bf97d3ea7724f289696ed09488c20e69d2911ab24f8688e860db8a11a7238a57a01dcc4de8dec75d7aab85b567b6ccd41ad312451b948a7413f0a142fd40d49347942adc25665018aa1fe0e6bc666dac8fc2697ff9baa0a0ed2da8aaa4b4050f423a36566c99d5e16e53bf00653261119001f68fd2dd8ea093ca2a18d52e7c1846f7b104e2fc1e5fdc71ebe38187248f9437d39e74f43aaba0ba9991e573821b0c234e361e68d2fe4b0fc940f8380d61fc18ee6ceb963b7094b90100000000000000000000000000000000000000000000000000000000000000000000000000000000000000000000000000000000000000000000000000000000000000000000000000000000000000000000000000000000000000000000000000000000000000000000000000000000000000000000000000000000000000000000000000000000000000000000000000000000000000000000000000000000000000000000000000000000000000000000000000000000000000000000000000000000000000000000000000000000000000000000000000000000000000000000000000000000000000000000000000000000000000000000000000000000008302000001830f424083061a808203e880a05dd48b5485ed30fe46a1687c7fc10769db8629f61baf6da6e1581d8e44419d928854f881da0f4a8086f865f863800183061a8094095e7baea6a6c7c4c2dfeb977efac326af552d87830186a0801ca0e94818d1f3b0c69eb37720145a5ead7fbf6f8d80139dd53953b4a782301050a3a01fcf46908c01576715411be0857e30027d6be3250a3653f049b3ff8d74d2540cc0",
                "transactions" : [
                    {
                        "data" : "0x",
                        "gasLimit" : "0x061a80",
                        "gasPrice" : "0x01",
                        "nonce" : "0x00",
                        "r" : "0xe94818d1f3b0c69eb37720145a5ead7fbf6f8d80139dd53953b4a782301050a3",
                        "s" : "0x1fcf46908c01576715411be0857e30027d6be3250a3653f049b3ff8d74d2540c",
                        "to" : "0x095e7baea6a6c7c4c2dfeb977efac326af552d87",
                        "v" : "0x1c",
                        "value" : "0x0186a0"
                    }
                ],
                "uncleHeaders" : [
                ]
            }
        ],
        "genesisBlockHeader" : {
            "bloom" : "0x00000000000000000000000000000000000000000000000000000000000000000000000000000000000000000000000000000000000000000000000000000000000000000000000000000000000000000000000000000000000000000000000000000000000000000000000000000000000000000000000000000000000000000000000000000000000000000000000000000000000000000000000000000000000000000000000000000000000000000000000000000000000000000000000000000000000000000000000000000000000000000000000000000000000000000000000000000000000000000000000000000000000000000000000000000000",
            "coinbase" : "0x2adc25665018aa1fe0e6bc666dac8fc2697ff9ba",
            "difficulty" : "0x020000",
            "extraData" : "0x42",
            "gasLimit" : "0x0f4240",
            "gasUsed" : "0x00",
            "hash" : "0xbf97d3ea7724f289696ed09488c20e69d2911ab24f8688e860db8a11a7238a57",
            "mixHash" : "0x56e81f171bcc55a6ff8345e692c0f86e5b48e01b996cadc001622fb5e363b421",
            "nonce" : "0x0102030405060708",
            "number" : "0x00",
            "parentHash" : "0x0000000000000000000000000000000000000000000000000000000000000000",
            "receiptTrie" : "0x56e81f171bcc55a6ff8345e692c0f86e5b48e01b996cadc001622fb5e363b421",
            "stateRoot" : "0x69dca32c9807887cda17d06b5575204c45eaeb681722a37f5f2f6ffaa712dea0",
            "timestamp" : "0x03b6",
            "transactionsTrie" : "0x56e81f171bcc55a6ff8345e692c0f86e5b48e01b996cadc001622fb5e363b421",
            "uncleHash" : "0x1dcc4de8dec75d7aab85b567b6ccd41ad312451b948a7413f0a142fd40d49347"
        },
        "genesisRLP" : "0xf901faf901f5a00000000000000000000000000000000000000000000000000000000000000000a01dcc4de8dec75d7aab85b567b6ccd41ad312451b948a7413f0a142fd40d49347942adc25665018aa1fe0e6bc666dac8fc2697ff9baa069dca32c9807887cda17d06b5575204c45eaeb681722a37f5f2f6ffaa712dea0a056e81f171bcc55a6ff8345e692c0f86e5b48e01b996cadc001622fb5e363b421a056e81f171bcc55a6ff8345e692c0f86e5b48e01b996cadc001622fb5e363b421b90100000000000000000000000000000000000000000000000000000000000000000000000000000000000000000000000000000000000000000000000000000000000000000000000000000000000000000000000000000000000000000000000000000000000000000000000000000000000000000000000000000000000000000000000000000000000000000000000000000000000000000000000000000000000000000000000000000000000000000000000000000000000000000000000000000000000000000000000000000000000000000000000000000000000000000000000000000000000000000000000000000000000000000000000000000000008302000080830f4240808203b642a056e81f171bcc55a6ff8345e692c0f86e5b48e01b996cadc001622fb5e363b421880102030405060708c0c0",
        "lastblockhash" : "0x12df01c916a12956eded7246535f3aa10714e05dbc06a27cd6915595265a7cfd",
        "network" : "Byzantium",
        "postState" : {
            "0x095e7baea6a6c7c4c2dfeb977efac326af552d87" : {
                "balance" : "0x0de0b6b3a7640000",
                "code" : "0x600160011d600055",
                "nonce" : "0x00",
                "storage" : {
                    "0x00" : "0x03"
                }
            },
            "0x2adc25665018aa1fe0e6bc666dac8fc2697ff9ba" : {
                "balance" : "0x29a2241af6321a80",
                "code" : "",
                "nonce" : "0x00",
                "storage" : {
                }
            },
            "0xa94f5374fce5edbc8e2a8697c15331677e6ebf0b" : {
                "balance" : "0x0de0b6b3a75de580",
                "code" : "",
                "nonce" : "0x01",
                "storage" : {
                }
            }
        },
        "pre" : {
            "0x095e7baea6a6c7c4c2dfeb977efac326af552d87" : {
                "balance" : "0x0de0b6b3a7640000",
                "code" : "0x600160011d600055",
                "nonce" : "0x00",
                "storage" : {
                    "0x00" : "0x03"
                }
            },
            "0xa94f5374fce5edbc8e2a8697c15331677e6ebf0b" : {
                "balance" : "0x0de0b6b3a7640000",
                "code" : "",
                "nonce" : "0x00",
                "storage" : {
                }
            }
        }
    },
    "sar11_d0g0v0_Constantinople" : {
        "_info" : {
            "comment" : "",
            "filledwith" : "cpp-1.3.0+commit.7f06dbfd.Linux.g++",
            "lllcversion" : "Version: 0.4.21-develop.2018.2.27+commit.2abc5be7.Linux.g++",
            "source" : "src/BlockchainTestsFiller/GeneralStateTests/stShift/sar11_d0g0v0Filler.json",
            "sourceHash" : "e20f502e1d613c7451050d8d04e58973463b7fc15e366ca63b1deb49c1bff299"
        },
        "blocks" : [
            {
                "blockHeader" : {
                    "bloom" : "0x00000000000000000000000000000000000000000000000000000000000000000000000000000000000000000000000000000000000000000000000000000000000000000000000000000000000000000000000000000000000000000000000000000000000000000000000000000000000000000000000000000000000000000000000000000000000000000000000000000000000000000000000000000000000000000000000000000000000000000000000000000000000000000000000000000000000000000000000000000000000000000000000000000000000000000000000000000000000000000000000000000000000000000000000000000000",
                    "coinbase" : "0x2adc25665018aa1fe0e6bc666dac8fc2697ff9ba",
                    "difficulty" : "0x020000",
                    "extraData" : "",
                    "gasLimit" : "0x0f4240",
                    "gasUsed" : "0x32ce",
                    "hash" : "0x9110f289072e9571235859dc78b021a79e5a4312893af1117d43eb016ff6e103",
                    "mixHash" : "0xf13508b0d1811134141ea398603c4425289d50cb5d3337888994b0d2fe31d221",
                    "nonce" : "0xeeba88f60abd3ffb",
                    "number" : "0x01",
                    "parentHash" : "0xbf97d3ea7724f289696ed09488c20e69d2911ab24f8688e860db8a11a7238a57",
                    "receiptTrie" : "0xfd8140e3683d961b3a96b7b1f88a1f333e69daf18b210ef208c6d673634f3b5e",
                    "stateRoot" : "0x47e40adfd905b18d615827d7f458d0a862771b43d75c9ffb7d698584b11ccf04",
                    "timestamp" : "0x03e8",
                    "transactionsTrie" : "0x93ca2a18d52e7c1846f7b104e2fc1e5fdc71ebe38187248f9437d39e74f43aab",
                    "uncleHash" : "0x1dcc4de8dec75d7aab85b567b6ccd41ad312451b948a7413f0a142fd40d49347"
                },
                "rlp" : "0xf90262f901f7a0bf97d3ea7724f289696ed09488c20e69d2911ab24f8688e860db8a11a7238a57a01dcc4de8dec75d7aab85b567b6ccd41ad312451b948a7413f0a142fd40d49347942adc25665018aa1fe0e6bc666dac8fc2697ff9baa047e40adfd905b18d615827d7f458d0a862771b43d75c9ffb7d698584b11ccf04a093ca2a18d52e7c1846f7b104e2fc1e5fdc71ebe38187248f9437d39e74f43aaba0fd8140e3683d961b3a96b7b1f88a1f333e69daf18b210ef208c6d673634f3b5eb90100000000000000000000000000000000000000000000000000000000000000000000000000000000000000000000000000000000000000000000000000000000000000000000000000000000000000000000000000000000000000000000000000000000000000000000000000000000000000000000000000000000000000000000000000000000000000000000000000000000000000000000000000000000000000000000000000000000000000000000000000000000000000000000000000000000000000000000000000000000000000000000000000000000000000000000000000000000000000000000000000000000000000000000000000000000008302000001830f42408232ce8203e880a0f13508b0d1811134141ea398603c4425289d50cb5d3337888994b0d2fe31d22188eeba88f60abd3ffbf865f863800183061a8094095e7baea6a6c7c4c2dfeb977efac326af552d87830186a0801ca0e94818d1f3b0c69eb37720145a5ead7fbf6f8d80139dd53953b4a782301050a3a01fcf46908c01576715411be0857e30027d6be3250a3653f049b3ff8d74d2540cc0",
                "transactions" : [
                    {
                        "data" : "0x",
                        "gasLimit" : "0x061a80",
                        "gasPrice" : "0x01",
                        "nonce" : "0x00",
                        "r" : "0xe94818d1f3b0c69eb37720145a5ead7fbf6f8d80139dd53953b4a782301050a3",
                        "s" : "0x1fcf46908c01576715411be0857e30027d6be3250a3653f049b3ff8d74d2540c",
                        "to" : "0x095e7baea6a6c7c4c2dfeb977efac326af552d87",
                        "v" : "0x1c",
                        "value" : "0x0186a0"
                    }
                ],
                "uncleHeaders" : [
                ]
            }
        ],
        "genesisBlockHeader" : {
            "bloom" : "0x00000000000000000000000000000000000000000000000000000000000000000000000000000000000000000000000000000000000000000000000000000000000000000000000000000000000000000000000000000000000000000000000000000000000000000000000000000000000000000000000000000000000000000000000000000000000000000000000000000000000000000000000000000000000000000000000000000000000000000000000000000000000000000000000000000000000000000000000000000000000000000000000000000000000000000000000000000000000000000000000000000000000000000000000000000000",
            "coinbase" : "0x2adc25665018aa1fe0e6bc666dac8fc2697ff9ba",
            "difficulty" : "0x020000",
            "extraData" : "0x42",
            "gasLimit" : "0x0f4240",
            "gasUsed" : "0x00",
            "hash" : "0xbf97d3ea7724f289696ed09488c20e69d2911ab24f8688e860db8a11a7238a57",
            "mixHash" : "0x56e81f171bcc55a6ff8345e692c0f86e5b48e01b996cadc001622fb5e363b421",
            "nonce" : "0x0102030405060708",
            "number" : "0x00",
            "parentHash" : "0x0000000000000000000000000000000000000000000000000000000000000000",
            "receiptTrie" : "0x56e81f171bcc55a6ff8345e692c0f86e5b48e01b996cadc001622fb5e363b421",
            "stateRoot" : "0x69dca32c9807887cda17d06b5575204c45eaeb681722a37f5f2f6ffaa712dea0",
            "timestamp" : "0x03b6",
            "transactionsTrie" : "0x56e81f171bcc55a6ff8345e692c0f86e5b48e01b996cadc001622fb5e363b421",
            "uncleHash" : "0x1dcc4de8dec75d7aab85b567b6ccd41ad312451b948a7413f0a142fd40d49347"
        },
        "genesisRLP" : "0xf901faf901f5a00000000000000000000000000000000000000000000000000000000000000000a01dcc4de8dec75d7aab85b567b6ccd41ad312451b948a7413f0a142fd40d49347942adc25665018aa1fe0e6bc666dac8fc2697ff9baa069dca32c9807887cda17d06b5575204c45eaeb681722a37f5f2f6ffaa712dea0a056e81f171bcc55a6ff8345e692c0f86e5b48e01b996cadc001622fb5e363b421a056e81f171bcc55a6ff8345e692c0f86e5b48e01b996cadc001622fb5e363b421b90100000000000000000000000000000000000000000000000000000000000000000000000000000000000000000000000000000000000000000000000000000000000000000000000000000000000000000000000000000000000000000000000000000000000000000000000000000000000000000000000000000000000000000000000000000000000000000000000000000000000000000000000000000000000000000000000000000000000000000000000000000000000000000000000000000000000000000000000000000000000000000000000000000000000000000000000000000000000000000000000000000000000000000000000000000000008302000080830f4240808203b642a056e81f171bcc55a6ff8345e692c0f86e5b48e01b996cadc001622fb5e363b421880102030405060708c0c0",
        "lastblockhash" : "0x9110f289072e9571235859dc78b021a79e5a4312893af1117d43eb016ff6e103",
        "network" : "Constantinople",
        "postState" : {
            "0x095e7baea6a6c7c4c2dfeb977efac326af552d87" : {
                "balance" : "0x0de0b6b3a76586a0",
                "code" : "0x600160011d600055",
                "nonce" : "0x00",
                "storage" : {
                }
            },
            "0x2adc25665018aa1fe0e6bc666dac8fc2697ff9ba" : {
                "balance" : "0x29a2241af62c32ce",
                "code" : "",
                "nonce" : "0x00",
                "storage" : {
                }
            },
            "0xa94f5374fce5edbc8e2a8697c15331677e6ebf0b" : {
                "balance" : "0x0de0b6b3a7624692",
                "code" : "",
                "nonce" : "0x01",
                "storage" : {
                }
            }
        },
        "pre" : {
            "0x095e7baea6a6c7c4c2dfeb977efac326af552d87" : {
                "balance" : "0x0de0b6b3a7640000",
                "code" : "0x600160011d600055",
                "nonce" : "0x00",
                "storage" : {
                    "0x00" : "0x03"
                }
            },
            "0xa94f5374fce5edbc8e2a8697c15331677e6ebf0b" : {
                "balance" : "0x0de0b6b3a7640000",
                "code" : "",
                "nonce" : "0x00",
                "storage" : {
                }
            }
        }
    },
    "sar11_d0g0v0_EIP150" : {
        "_info" : {
            "comment" : "",
            "filledwith" : "cpp-1.3.0+commit.7f06dbfd.Linux.g++",
            "lllcversion" : "Version: 0.4.21-develop.2018.2.27+commit.2abc5be7.Linux.g++",
            "source" : "src/BlockchainTestsFiller/GeneralStateTests/stShift/sar11_d0g0v0Filler.json",
            "sourceHash" : "e20f502e1d613c7451050d8d04e58973463b7fc15e366ca63b1deb49c1bff299"
        },
        "blocks" : [
            {
                "blockHeader" : {
                    "bloom" : "0x00000000000000000000000000000000000000000000000000000000000000000000000000000000000000000000000000000000000000000000000000000000000000000000000000000000000000000000000000000000000000000000000000000000000000000000000000000000000000000000000000000000000000000000000000000000000000000000000000000000000000000000000000000000000000000000000000000000000000000000000000000000000000000000000000000000000000000000000000000000000000000000000000000000000000000000000000000000000000000000000000000000000000000000000000000000",
                    "coinbase" : "0x2adc25665018aa1fe0e6bc666dac8fc2697ff9ba",
                    "difficulty" : "0x020000",
                    "extraData" : "",
                    "gasLimit" : "0x0f4240",
                    "gasUsed" : "0x061a80",
                    "hash" : "0xb2db4b87efb100ce56d47a0596d1cc8401646eef7d1fcb8372ae9ed0efe61e05",
                    "mixHash" : "0xe2dcf4606b3aca554a2c357a8e2f0586d34b977c085ee29f00d36ba465e1d62f",
                    "nonce" : "0x8b71f495484e02e9",
                    "number" : "0x01",
                    "parentHash" : "0xbf97d3ea7724f289696ed09488c20e69d2911ab24f8688e860db8a11a7238a57",
                    "receiptTrie" : "0x5c44ad056bc781d0b3c1bf6c672161eea7d50a6e798885bf6b075d002fdb5c74",
                    "stateRoot" : "0xfe57667ac0475d5c15de414f721df413ce1525a217d03a7e3ced619631a28b78",
                    "timestamp" : "0x03e8",
                    "transactionsTrie" : "0x93ca2a18d52e7c1846f7b104e2fc1e5fdc71ebe38187248f9437d39e74f43aab",
                    "uncleHash" : "0x1dcc4de8dec75d7aab85b567b6ccd41ad312451b948a7413f0a142fd40d49347"
                },
                "rlp" : "0xf90263f901f8a0bf97d3ea7724f289696ed09488c20e69d2911ab24f8688e860db8a11a7238a57a01dcc4de8dec75d7aab85b567b6ccd41ad312451b948a7413f0a142fd40d49347942adc25665018aa1fe0e6bc666dac8fc2697ff9baa0fe57667ac0475d5c15de414f721df413ce1525a217d03a7e3ced619631a28b78a093ca2a18d52e7c1846f7b104e2fc1e5fdc71ebe38187248f9437d39e74f43aaba05c44ad056bc781d0b3c1bf6c672161eea7d50a6e798885bf6b075d002fdb5c74b90100000000000000000000000000000000000000000000000000000000000000000000000000000000000000000000000000000000000000000000000000000000000000000000000000000000000000000000000000000000000000000000000000000000000000000000000000000000000000000000000000000000000000000000000000000000000000000000000000000000000000000000000000000000000000000000000000000000000000000000000000000000000000000000000000000000000000000000000000000000000000000000000000000000000000000000000000000000000000000000000000000000000000000000000000000000008302000001830f424083061a808203e880a0e2dcf4606b3aca554a2c357a8e2f0586d34b977c085ee29f00d36ba465e1d62f888b71f495484e02e9f865f863800183061a8094095e7baea6a6c7c4c2dfeb977efac326af552d87830186a0801ca0e94818d1f3b0c69eb37720145a5ead7fbf6f8d80139dd53953b4a782301050a3a01fcf46908c01576715411be0857e30027d6be3250a3653f049b3ff8d74d2540cc0",
                "transactions" : [
                    {
                        "data" : "0x",
                        "gasLimit" : "0x061a80",
                        "gasPrice" : "0x01",
                        "nonce" : "0x00",
                        "r" : "0xe94818d1f3b0c69eb37720145a5ead7fbf6f8d80139dd53953b4a782301050a3",
                        "s" : "0x1fcf46908c01576715411be0857e30027d6be3250a3653f049b3ff8d74d2540c",
                        "to" : "0x095e7baea6a6c7c4c2dfeb977efac326af552d87",
                        "v" : "0x1c",
                        "value" : "0x0186a0"
                    }
                ],
                "uncleHeaders" : [
                ]
            }
        ],
        "genesisBlockHeader" : {
            "bloom" : "0x00000000000000000000000000000000000000000000000000000000000000000000000000000000000000000000000000000000000000000000000000000000000000000000000000000000000000000000000000000000000000000000000000000000000000000000000000000000000000000000000000000000000000000000000000000000000000000000000000000000000000000000000000000000000000000000000000000000000000000000000000000000000000000000000000000000000000000000000000000000000000000000000000000000000000000000000000000000000000000000000000000000000000000000000000000000",
            "coinbase" : "0x2adc25665018aa1fe0e6bc666dac8fc2697ff9ba",
            "difficulty" : "0x020000",
            "extraData" : "0x42",
            "gasLimit" : "0x0f4240",
            "gasUsed" : "0x00",
            "hash" : "0xbf97d3ea7724f289696ed09488c20e69d2911ab24f8688e860db8a11a7238a57",
            "mixHash" : "0x56e81f171bcc55a6ff8345e692c0f86e5b48e01b996cadc001622fb5e363b421",
            "nonce" : "0x0102030405060708",
            "number" : "0x00",
            "parentHash" : "0x0000000000000000000000000000000000000000000000000000000000000000",
            "receiptTrie" : "0x56e81f171bcc55a6ff8345e692c0f86e5b48e01b996cadc001622fb5e363b421",
            "stateRoot" : "0x69dca32c9807887cda17d06b5575204c45eaeb681722a37f5f2f6ffaa712dea0",
            "timestamp" : "0x03b6",
            "transactionsTrie" : "0x56e81f171bcc55a6ff8345e692c0f86e5b48e01b996cadc001622fb5e363b421",
            "uncleHash" : "0x1dcc4de8dec75d7aab85b567b6ccd41ad312451b948a7413f0a142fd40d49347"
        },
        "genesisRLP" : "0xf901faf901f5a00000000000000000000000000000000000000000000000000000000000000000a01dcc4de8dec75d7aab85b567b6ccd41ad312451b948a7413f0a142fd40d49347942adc25665018aa1fe0e6bc666dac8fc2697ff9baa069dca32c9807887cda17d06b5575204c45eaeb681722a37f5f2f6ffaa712dea0a056e81f171bcc55a6ff8345e692c0f86e5b48e01b996cadc001622fb5e363b421a056e81f171bcc55a6ff8345e692c0f86e5b48e01b996cadc001622fb5e363b421b90100000000000000000000000000000000000000000000000000000000000000000000000000000000000000000000000000000000000000000000000000000000000000000000000000000000000000000000000000000000000000000000000000000000000000000000000000000000000000000000000000000000000000000000000000000000000000000000000000000000000000000000000000000000000000000000000000000000000000000000000000000000000000000000000000000000000000000000000000000000000000000000000000000000000000000000000000000000000000000000000000000000000000000000000000000000008302000080830f4240808203b642a056e81f171bcc55a6ff8345e692c0f86e5b48e01b996cadc001622fb5e363b421880102030405060708c0c0",
        "lastblockhash" : "0xb2db4b87efb100ce56d47a0596d1cc8401646eef7d1fcb8372ae9ed0efe61e05",
        "network" : "EIP150",
        "postState" : {
            "0x095e7baea6a6c7c4c2dfeb977efac326af552d87" : {
                "balance" : "0x0de0b6b3a7640000",
                "code" : "0x600160011d600055",
                "nonce" : "0x00",
                "storage" : {
                    "0x00" : "0x03"
                }
            },
            "0x2adc25665018aa1fe0e6bc666dac8fc2697ff9ba" : {
                "balance" : "0x4563918244fa1a80",
                "code" : "",
                "nonce" : "0x00",
                "storage" : {
                }
            },
            "0xa94f5374fce5edbc8e2a8697c15331677e6ebf0b" : {
                "balance" : "0x0de0b6b3a75de580",
                "code" : "",
                "nonce" : "0x01",
                "storage" : {
                }
            }
        },
        "pre" : {
            "0x095e7baea6a6c7c4c2dfeb977efac326af552d87" : {
                "balance" : "0x0de0b6b3a7640000",
                "code" : "0x600160011d600055",
                "nonce" : "0x00",
                "storage" : {
                    "0x00" : "0x03"
                }
            },
            "0xa94f5374fce5edbc8e2a8697c15331677e6ebf0b" : {
                "balance" : "0x0de0b6b3a7640000",
                "code" : "",
                "nonce" : "0x00",
                "storage" : {
                }
            }
        }
    },
    "sar11_d0g0v0_EIP158" : {
        "_info" : {
            "comment" : "",
            "filledwith" : "cpp-1.3.0+commit.7f06dbfd.Linux.g++",
            "lllcversion" : "Version: 0.4.21-develop.2018.2.27+commit.2abc5be7.Linux.g++",
            "source" : "src/BlockchainTestsFiller/GeneralStateTests/stShift/sar11_d0g0v0Filler.json",
            "sourceHash" : "e20f502e1d613c7451050d8d04e58973463b7fc15e366ca63b1deb49c1bff299"
        },
        "blocks" : [
            {
                "blockHeader" : {
                    "bloom" : "0x00000000000000000000000000000000000000000000000000000000000000000000000000000000000000000000000000000000000000000000000000000000000000000000000000000000000000000000000000000000000000000000000000000000000000000000000000000000000000000000000000000000000000000000000000000000000000000000000000000000000000000000000000000000000000000000000000000000000000000000000000000000000000000000000000000000000000000000000000000000000000000000000000000000000000000000000000000000000000000000000000000000000000000000000000000000",
                    "coinbase" : "0x2adc25665018aa1fe0e6bc666dac8fc2697ff9ba",
                    "difficulty" : "0x020000",
                    "extraData" : "",
                    "gasLimit" : "0x0f4240",
                    "gasUsed" : "0x061a80",
                    "hash" : "0x2ecda6cd1ae013ab1fd98876eebf4ef4e17bf0c8703ac3e6b62ddcb5db0a41a4",
                    "mixHash" : "0x73eb17dccc7d613d1ce24748637b28bcda1d7c7150240ac826bf9d98a4c99a51",
                    "nonce" : "0x724edc50d901ba90",
                    "number" : "0x01",
                    "parentHash" : "0xbf97d3ea7724f289696ed09488c20e69d2911ab24f8688e860db8a11a7238a57",
                    "receiptTrie" : "0x5c44ad056bc781d0b3c1bf6c672161eea7d50a6e798885bf6b075d002fdb5c74",
                    "stateRoot" : "0xfe57667ac0475d5c15de414f721df413ce1525a217d03a7e3ced619631a28b78",
                    "timestamp" : "0x03e8",
                    "transactionsTrie" : "0x93ca2a18d52e7c1846f7b104e2fc1e5fdc71ebe38187248f9437d39e74f43aab",
                    "uncleHash" : "0x1dcc4de8dec75d7aab85b567b6ccd41ad312451b948a7413f0a142fd40d49347"
                },
                "rlp" : "0xf90263f901f8a0bf97d3ea7724f289696ed09488c20e69d2911ab24f8688e860db8a11a7238a57a01dcc4de8dec75d7aab85b567b6ccd41ad312451b948a7413f0a142fd40d49347942adc25665018aa1fe0e6bc666dac8fc2697ff9baa0fe57667ac0475d5c15de414f721df413ce1525a217d03a7e3ced619631a28b78a093ca2a18d52e7c1846f7b104e2fc1e5fdc71ebe38187248f9437d39e74f43aaba05c44ad056bc781d0b3c1bf6c672161eea7d50a6e798885bf6b075d002fdb5c74b90100000000000000000000000000000000000000000000000000000000000000000000000000000000000000000000000000000000000000000000000000000000000000000000000000000000000000000000000000000000000000000000000000000000000000000000000000000000000000000000000000000000000000000000000000000000000000000000000000000000000000000000000000000000000000000000000000000000000000000000000000000000000000000000000000000000000000000000000000000000000000000000000000000000000000000000000000000000000000000000000000000000000000000000000000000000008302000001830f424083061a808203e880a073eb17dccc7d613d1ce24748637b28bcda1d7c7150240ac826bf9d98a4c99a5188724edc50d901ba90f865f863800183061a8094095e7baea6a6c7c4c2dfeb977efac326af552d87830186a0801ca0e94818d1f3b0c69eb37720145a5ead7fbf6f8d80139dd53953b4a782301050a3a01fcf46908c01576715411be0857e30027d6be3250a3653f049b3ff8d74d2540cc0",
                "transactions" : [
                    {
                        "data" : "0x",
                        "gasLimit" : "0x061a80",
                        "gasPrice" : "0x01",
                        "nonce" : "0x00",
                        "r" : "0xe94818d1f3b0c69eb37720145a5ead7fbf6f8d80139dd53953b4a782301050a3",
                        "s" : "0x1fcf46908c01576715411be0857e30027d6be3250a3653f049b3ff8d74d2540c",
                        "to" : "0x095e7baea6a6c7c4c2dfeb977efac326af552d87",
                        "v" : "0x1c",
                        "value" : "0x0186a0"
                    }
                ],
                "uncleHeaders" : [
                ]
            }
        ],
        "genesisBlockHeader" : {
            "bloom" : "0x00000000000000000000000000000000000000000000000000000000000000000000000000000000000000000000000000000000000000000000000000000000000000000000000000000000000000000000000000000000000000000000000000000000000000000000000000000000000000000000000000000000000000000000000000000000000000000000000000000000000000000000000000000000000000000000000000000000000000000000000000000000000000000000000000000000000000000000000000000000000000000000000000000000000000000000000000000000000000000000000000000000000000000000000000000000",
            "coinbase" : "0x2adc25665018aa1fe0e6bc666dac8fc2697ff9ba",
            "difficulty" : "0x020000",
            "extraData" : "0x42",
            "gasLimit" : "0x0f4240",
            "gasUsed" : "0x00",
            "hash" : "0xbf97d3ea7724f289696ed09488c20e69d2911ab24f8688e860db8a11a7238a57",
            "mixHash" : "0x56e81f171bcc55a6ff8345e692c0f86e5b48e01b996cadc001622fb5e363b421",
            "nonce" : "0x0102030405060708",
            "number" : "0x00",
            "parentHash" : "0x0000000000000000000000000000000000000000000000000000000000000000",
            "receiptTrie" : "0x56e81f171bcc55a6ff8345e692c0f86e5b48e01b996cadc001622fb5e363b421",
            "stateRoot" : "0x69dca32c9807887cda17d06b5575204c45eaeb681722a37f5f2f6ffaa712dea0",
            "timestamp" : "0x03b6",
            "transactionsTrie" : "0x56e81f171bcc55a6ff8345e692c0f86e5b48e01b996cadc001622fb5e363b421",
            "uncleHash" : "0x1dcc4de8dec75d7aab85b567b6ccd41ad312451b948a7413f0a142fd40d49347"
        },
        "genesisRLP" : "0xf901faf901f5a00000000000000000000000000000000000000000000000000000000000000000a01dcc4de8dec75d7aab85b567b6ccd41ad312451b948a7413f0a142fd40d49347942adc25665018aa1fe0e6bc666dac8fc2697ff9baa069dca32c9807887cda17d06b5575204c45eaeb681722a37f5f2f6ffaa712dea0a056e81f171bcc55a6ff8345e692c0f86e5b48e01b996cadc001622fb5e363b421a056e81f171bcc55a6ff8345e692c0f86e5b48e01b996cadc001622fb5e363b421b90100000000000000000000000000000000000000000000000000000000000000000000000000000000000000000000000000000000000000000000000000000000000000000000000000000000000000000000000000000000000000000000000000000000000000000000000000000000000000000000000000000000000000000000000000000000000000000000000000000000000000000000000000000000000000000000000000000000000000000000000000000000000000000000000000000000000000000000000000000000000000000000000000000000000000000000000000000000000000000000000000000000000000000000000000000000008302000080830f4240808203b642a056e81f171bcc55a6ff8345e692c0f86e5b48e01b996cadc001622fb5e363b421880102030405060708c0c0",
        "lastblockhash" : "0x2ecda6cd1ae013ab1fd98876eebf4ef4e17bf0c8703ac3e6b62ddcb5db0a41a4",
        "network" : "EIP158",
        "postState" : {
            "0x095e7baea6a6c7c4c2dfeb977efac326af552d87" : {
                "balance" : "0x0de0b6b3a7640000",
                "code" : "0x600160011d600055",
                "nonce" : "0x00",
                "storage" : {
                    "0x00" : "0x03"
                }
            },
            "0x2adc25665018aa1fe0e6bc666dac8fc2697ff9ba" : {
                "balance" : "0x4563918244fa1a80",
                "code" : "",
                "nonce" : "0x00",
                "storage" : {
                }
            },
            "0xa94f5374fce5edbc8e2a8697c15331677e6ebf0b" : {
                "balance" : "0x0de0b6b3a75de580",
                "code" : "",
                "nonce" : "0x01",
                "storage" : {
                }
            }
        },
        "pre" : {
            "0x095e7baea6a6c7c4c2dfeb977efac326af552d87" : {
                "balance" : "0x0de0b6b3a7640000",
                "code" : "0x600160011d600055",
                "nonce" : "0x00",
                "storage" : {
                    "0x00" : "0x03"
                }
            },
            "0xa94f5374fce5edbc8e2a8697c15331677e6ebf0b" : {
                "balance" : "0x0de0b6b3a7640000",
                "code" : "",
                "nonce" : "0x00",
                "storage" : {
                }
            }
        }
    },
    "sar11_d0g0v0_Frontier" : {
        "_info" : {
            "comment" : "",
            "filledwith" : "cpp-1.3.0+commit.7f06dbfd.Linux.g++",
            "lllcversion" : "Version: 0.4.21-develop.2018.2.27+commit.2abc5be7.Linux.g++",
            "source" : "src/BlockchainTestsFiller/GeneralStateTests/stShift/sar11_d0g0v0Filler.json",
            "sourceHash" : "e20f502e1d613c7451050d8d04e58973463b7fc15e366ca63b1deb49c1bff299"
        },
        "blocks" : [
            {
                "blockHeader" : {
                    "bloom" : "0x00000000000000000000000000000000000000000000000000000000000000000000000000000000000000000000000000000000000000000000000000000000000000000000000000000000000000000000000000000000000000000000000000000000000000000000000000000000000000000000000000000000000000000000000000000000000000000000000000000000000000000000000000000000000000000000000000000000000000000000000000000000000000000000000000000000000000000000000000000000000000000000000000000000000000000000000000000000000000000000000000000000000000000000000000000000",
                    "coinbase" : "0x2adc25665018aa1fe0e6bc666dac8fc2697ff9ba",
                    "difficulty" : "0x020000",
                    "extraData" : "",
                    "gasLimit" : "0x0f4240",
                    "gasUsed" : "0x061a80",
                    "hash" : "0x3b83b503f0bf324a53a09530f6b0a65b296fbdb6a892b9f365a031c932527734",
                    "mixHash" : "0xabee1d8504f0612abbd1edcef7ce071fd8189863aeb12365d8a568240ca415bf",
                    "nonce" : "0x02c71472c4035550",
                    "number" : "0x01",
                    "parentHash" : "0xbf97d3ea7724f289696ed09488c20e69d2911ab24f8688e860db8a11a7238a57",
                    "receiptTrie" : "0x5c44ad056bc781d0b3c1bf6c672161eea7d50a6e798885bf6b075d002fdb5c74",
                    "stateRoot" : "0xfe57667ac0475d5c15de414f721df413ce1525a217d03a7e3ced619631a28b78",
                    "timestamp" : "0x03e8",
                    "transactionsTrie" : "0x93ca2a18d52e7c1846f7b104e2fc1e5fdc71ebe38187248f9437d39e74f43aab",
                    "uncleHash" : "0x1dcc4de8dec75d7aab85b567b6ccd41ad312451b948a7413f0a142fd40d49347"
                },
                "rlp" : "0xf90263f901f8a0bf97d3ea7724f289696ed09488c20e69d2911ab24f8688e860db8a11a7238a57a01dcc4de8dec75d7aab85b567b6ccd41ad312451b948a7413f0a142fd40d49347942adc25665018aa1fe0e6bc666dac8fc2697ff9baa0fe57667ac0475d5c15de414f721df413ce1525a217d03a7e3ced619631a28b78a093ca2a18d52e7c1846f7b104e2fc1e5fdc71ebe38187248f9437d39e74f43aaba05c44ad056bc781d0b3c1bf6c672161eea7d50a6e798885bf6b075d002fdb5c74b90100000000000000000000000000000000000000000000000000000000000000000000000000000000000000000000000000000000000000000000000000000000000000000000000000000000000000000000000000000000000000000000000000000000000000000000000000000000000000000000000000000000000000000000000000000000000000000000000000000000000000000000000000000000000000000000000000000000000000000000000000000000000000000000000000000000000000000000000000000000000000000000000000000000000000000000000000000000000000000000000000000000000000000000000000000000008302000001830f424083061a808203e880a0abee1d8504f0612abbd1edcef7ce071fd8189863aeb12365d8a568240ca415bf8802c71472c4035550f865f863800183061a8094095e7baea6a6c7c4c2dfeb977efac326af552d87830186a0801ca0e94818d1f3b0c69eb37720145a5ead7fbf6f8d80139dd53953b4a782301050a3a01fcf46908c01576715411be0857e30027d6be3250a3653f049b3ff8d74d2540cc0",
                "transactions" : [
                    {
                        "data" : "0x",
                        "gasLimit" : "0x061a80",
                        "gasPrice" : "0x01",
                        "nonce" : "0x00",
                        "r" : "0xe94818d1f3b0c69eb37720145a5ead7fbf6f8d80139dd53953b4a782301050a3",
                        "s" : "0x1fcf46908c01576715411be0857e30027d6be3250a3653f049b3ff8d74d2540c",
                        "to" : "0x095e7baea6a6c7c4c2dfeb977efac326af552d87",
                        "v" : "0x1c",
                        "value" : "0x0186a0"
                    }
                ],
                "uncleHeaders" : [
                ]
            }
        ],
        "genesisBlockHeader" : {
            "bloom" : "0x00000000000000000000000000000000000000000000000000000000000000000000000000000000000000000000000000000000000000000000000000000000000000000000000000000000000000000000000000000000000000000000000000000000000000000000000000000000000000000000000000000000000000000000000000000000000000000000000000000000000000000000000000000000000000000000000000000000000000000000000000000000000000000000000000000000000000000000000000000000000000000000000000000000000000000000000000000000000000000000000000000000000000000000000000000000",
            "coinbase" : "0x2adc25665018aa1fe0e6bc666dac8fc2697ff9ba",
            "difficulty" : "0x020000",
            "extraData" : "0x42",
            "gasLimit" : "0x0f4240",
            "gasUsed" : "0x00",
            "hash" : "0xbf97d3ea7724f289696ed09488c20e69d2911ab24f8688e860db8a11a7238a57",
            "mixHash" : "0x56e81f171bcc55a6ff8345e692c0f86e5b48e01b996cadc001622fb5e363b421",
            "nonce" : "0x0102030405060708",
            "number" : "0x00",
            "parentHash" : "0x0000000000000000000000000000000000000000000000000000000000000000",
            "receiptTrie" : "0x56e81f171bcc55a6ff8345e692c0f86e5b48e01b996cadc001622fb5e363b421",
            "stateRoot" : "0x69dca32c9807887cda17d06b5575204c45eaeb681722a37f5f2f6ffaa712dea0",
            "timestamp" : "0x03b6",
            "transactionsTrie" : "0x56e81f171bcc55a6ff8345e692c0f86e5b48e01b996cadc001622fb5e363b421",
            "uncleHash" : "0x1dcc4de8dec75d7aab85b567b6ccd41ad312451b948a7413f0a142fd40d49347"
        },
        "genesisRLP" : "0xf901faf901f5a00000000000000000000000000000000000000000000000000000000000000000a01dcc4de8dec75d7aab85b567b6ccd41ad312451b948a7413f0a142fd40d49347942adc25665018aa1fe0e6bc666dac8fc2697ff9baa069dca32c9807887cda17d06b5575204c45eaeb681722a37f5f2f6ffaa712dea0a056e81f171bcc55a6ff8345e692c0f86e5b48e01b996cadc001622fb5e363b421a056e81f171bcc55a6ff8345e692c0f86e5b48e01b996cadc001622fb5e363b421b90100000000000000000000000000000000000000000000000000000000000000000000000000000000000000000000000000000000000000000000000000000000000000000000000000000000000000000000000000000000000000000000000000000000000000000000000000000000000000000000000000000000000000000000000000000000000000000000000000000000000000000000000000000000000000000000000000000000000000000000000000000000000000000000000000000000000000000000000000000000000000000000000000000000000000000000000000000000000000000000000000000000000000000000000000000000008302000080830f4240808203b642a056e81f171bcc55a6ff8345e692c0f86e5b48e01b996cadc001622fb5e363b421880102030405060708c0c0",
        "lastblockhash" : "0x3b83b503f0bf324a53a09530f6b0a65b296fbdb6a892b9f365a031c932527734",
        "network" : "Frontier",
        "postState" : {
            "0x095e7baea6a6c7c4c2dfeb977efac326af552d87" : {
                "balance" : "0x0de0b6b3a7640000",
                "code" : "0x600160011d600055",
                "nonce" : "0x00",
                "storage" : {
                    "0x00" : "0x03"
                }
            },
            "0x2adc25665018aa1fe0e6bc666dac8fc2697ff9ba" : {
                "balance" : "0x4563918244fa1a80",
                "code" : "",
                "nonce" : "0x00",
                "storage" : {
                }
            },
            "0xa94f5374fce5edbc8e2a8697c15331677e6ebf0b" : {
                "balance" : "0x0de0b6b3a75de580",
                "code" : "",
                "nonce" : "0x01",
                "storage" : {
                }
            }
        },
        "pre" : {
            "0x095e7baea6a6c7c4c2dfeb977efac326af552d87" : {
                "balance" : "0x0de0b6b3a7640000",
                "code" : "0x600160011d600055",
                "nonce" : "0x00",
                "storage" : {
                    "0x00" : "0x03"
                }
            },
            "0xa94f5374fce5edbc8e2a8697c15331677e6ebf0b" : {
                "balance" : "0x0de0b6b3a7640000",
                "code" : "",
                "nonce" : "0x00",
                "storage" : {
                }
            }
        }
    },
    "sar11_d0g0v0_Homestead" : {
        "_info" : {
            "comment" : "",
            "filledwith" : "cpp-1.3.0+commit.7f06dbfd.Linux.g++",
            "lllcversion" : "Version: 0.4.21-develop.2018.2.27+commit.2abc5be7.Linux.g++",
            "source" : "src/BlockchainTestsFiller/GeneralStateTests/stShift/sar11_d0g0v0Filler.json",
            "sourceHash" : "e20f502e1d613c7451050d8d04e58973463b7fc15e366ca63b1deb49c1bff299"
        },
        "blocks" : [
            {
                "blockHeader" : {
                    "bloom" : "0x00000000000000000000000000000000000000000000000000000000000000000000000000000000000000000000000000000000000000000000000000000000000000000000000000000000000000000000000000000000000000000000000000000000000000000000000000000000000000000000000000000000000000000000000000000000000000000000000000000000000000000000000000000000000000000000000000000000000000000000000000000000000000000000000000000000000000000000000000000000000000000000000000000000000000000000000000000000000000000000000000000000000000000000000000000000",
                    "coinbase" : "0x2adc25665018aa1fe0e6bc666dac8fc2697ff9ba",
                    "difficulty" : "0x020000",
                    "extraData" : "",
                    "gasLimit" : "0x0f4240",
                    "gasUsed" : "0x061a80",
                    "hash" : "0x858c407099448b1b6cd864beb0f252e84fb68030ef11331e4e82233cc003037b",
                    "mixHash" : "0x41f74cfef6e48df09e44b6d99c00c8ce2fbc2d959ec808dd9c4500629ce90f7e",
                    "nonce" : "0xeac8f98d80030194",
                    "number" : "0x01",
                    "parentHash" : "0xbf97d3ea7724f289696ed09488c20e69d2911ab24f8688e860db8a11a7238a57",
                    "receiptTrie" : "0x5c44ad056bc781d0b3c1bf6c672161eea7d50a6e798885bf6b075d002fdb5c74",
                    "stateRoot" : "0xfe57667ac0475d5c15de414f721df413ce1525a217d03a7e3ced619631a28b78",
                    "timestamp" : "0x03e8",
                    "transactionsTrie" : "0x93ca2a18d52e7c1846f7b104e2fc1e5fdc71ebe38187248f9437d39e74f43aab",
                    "uncleHash" : "0x1dcc4de8dec75d7aab85b567b6ccd41ad312451b948a7413f0a142fd40d49347"
                },
                "rlp" : "0xf90263f901f8a0bf97d3ea7724f289696ed09488c20e69d2911ab24f8688e860db8a11a7238a57a01dcc4de8dec75d7aab85b567b6ccd41ad312451b948a7413f0a142fd40d49347942adc25665018aa1fe0e6bc666dac8fc2697ff9baa0fe57667ac0475d5c15de414f721df413ce1525a217d03a7e3ced619631a28b78a093ca2a18d52e7c1846f7b104e2fc1e5fdc71ebe38187248f9437d39e74f43aaba05c44ad056bc781d0b3c1bf6c672161eea7d50a6e798885bf6b075d002fdb5c74b90100000000000000000000000000000000000000000000000000000000000000000000000000000000000000000000000000000000000000000000000000000000000000000000000000000000000000000000000000000000000000000000000000000000000000000000000000000000000000000000000000000000000000000000000000000000000000000000000000000000000000000000000000000000000000000000000000000000000000000000000000000000000000000000000000000000000000000000000000000000000000000000000000000000000000000000000000000000000000000000000000000000000000000000000000000000008302000001830f424083061a808203e880a041f74cfef6e48df09e44b6d99c00c8ce2fbc2d959ec808dd9c4500629ce90f7e88eac8f98d80030194f865f863800183061a8094095e7baea6a6c7c4c2dfeb977efac326af552d87830186a0801ca0e94818d1f3b0c69eb37720145a5ead7fbf6f8d80139dd53953b4a782301050a3a01fcf46908c01576715411be0857e30027d6be3250a3653f049b3ff8d74d2540cc0",
                "transactions" : [
                    {
                        "data" : "0x",
                        "gasLimit" : "0x061a80",
                        "gasPrice" : "0x01",
                        "nonce" : "0x00",
                        "r" : "0xe94818d1f3b0c69eb37720145a5ead7fbf6f8d80139dd53953b4a782301050a3",
                        "s" : "0x1fcf46908c01576715411be0857e30027d6be3250a3653f049b3ff8d74d2540c",
                        "to" : "0x095e7baea6a6c7c4c2dfeb977efac326af552d87",
                        "v" : "0x1c",
                        "value" : "0x0186a0"
                    }
                ],
                "uncleHeaders" : [
                ]
            }
        ],
        "genesisBlockHeader" : {
            "bloom" : "0x00000000000000000000000000000000000000000000000000000000000000000000000000000000000000000000000000000000000000000000000000000000000000000000000000000000000000000000000000000000000000000000000000000000000000000000000000000000000000000000000000000000000000000000000000000000000000000000000000000000000000000000000000000000000000000000000000000000000000000000000000000000000000000000000000000000000000000000000000000000000000000000000000000000000000000000000000000000000000000000000000000000000000000000000000000000",
            "coinbase" : "0x2adc25665018aa1fe0e6bc666dac8fc2697ff9ba",
            "difficulty" : "0x020000",
            "extraData" : "0x42",
            "gasLimit" : "0x0f4240",
            "gasUsed" : "0x00",
            "hash" : "0xbf97d3ea7724f289696ed09488c20e69d2911ab24f8688e860db8a11a7238a57",
            "mixHash" : "0x56e81f171bcc55a6ff8345e692c0f86e5b48e01b996cadc001622fb5e363b421",
            "nonce" : "0x0102030405060708",
            "number" : "0x00",
            "parentHash" : "0x0000000000000000000000000000000000000000000000000000000000000000",
            "receiptTrie" : "0x56e81f171bcc55a6ff8345e692c0f86e5b48e01b996cadc001622fb5e363b421",
            "stateRoot" : "0x69dca32c9807887cda17d06b5575204c45eaeb681722a37f5f2f6ffaa712dea0",
            "timestamp" : "0x03b6",
            "transactionsTrie" : "0x56e81f171bcc55a6ff8345e692c0f86e5b48e01b996cadc001622fb5e363b421",
            "uncleHash" : "0x1dcc4de8dec75d7aab85b567b6ccd41ad312451b948a7413f0a142fd40d49347"
        },
        "genesisRLP" : "0xf901faf901f5a00000000000000000000000000000000000000000000000000000000000000000a01dcc4de8dec75d7aab85b567b6ccd41ad312451b948a7413f0a142fd40d49347942adc25665018aa1fe0e6bc666dac8fc2697ff9baa069dca32c9807887cda17d06b5575204c45eaeb681722a37f5f2f6ffaa712dea0a056e81f171bcc55a6ff8345e692c0f86e5b48e01b996cadc001622fb5e363b421a056e81f171bcc55a6ff8345e692c0f86e5b48e01b996cadc001622fb5e363b421b90100000000000000000000000000000000000000000000000000000000000000000000000000000000000000000000000000000000000000000000000000000000000000000000000000000000000000000000000000000000000000000000000000000000000000000000000000000000000000000000000000000000000000000000000000000000000000000000000000000000000000000000000000000000000000000000000000000000000000000000000000000000000000000000000000000000000000000000000000000000000000000000000000000000000000000000000000000000000000000000000000000000000000000000000000000000008302000080830f4240808203b642a056e81f171bcc55a6ff8345e692c0f86e5b48e01b996cadc001622fb5e363b421880102030405060708c0c0",
        "lastblockhash" : "0x858c407099448b1b6cd864beb0f252e84fb68030ef11331e4e82233cc003037b",
        "network" : "Homestead",
        "postState" : {
            "0x095e7baea6a6c7c4c2dfeb977efac326af552d87" : {
                "balance" : "0x0de0b6b3a7640000",
                "code" : "0x600160011d600055",
                "nonce" : "0x00",
                "storage" : {
                    "0x00" : "0x03"
                }
            },
            "0x2adc25665018aa1fe0e6bc666dac8fc2697ff9ba" : {
                "balance" : "0x4563918244fa1a80",
                "code" : "",
                "nonce" : "0x00",
                "storage" : {
                }
            },
            "0xa94f5374fce5edbc8e2a8697c15331677e6ebf0b" : {
                "balance" : "0x0de0b6b3a75de580",
                "code" : "",
                "nonce" : "0x01",
                "storage" : {
                }
            }
        },
        "pre" : {
            "0x095e7baea6a6c7c4c2dfeb977efac326af552d87" : {
                "balance" : "0x0de0b6b3a7640000",
                "code" : "0x600160011d600055",
                "nonce" : "0x00",
                "storage" : {
                    "0x00" : "0x03"
                }
            },
            "0xa94f5374fce5edbc8e2a8697c15331677e6ebf0b" : {
                "balance" : "0x0de0b6b3a7640000",
                "code" : "",
                "nonce" : "0x00",
                "storage" : {
                }
            }
        }
    }
}